:10000000C6C238CED4C225CED2C2D1C2D0C2CFC28F
:10001000CEC2CDC2CCC247CE69CEC9C2C8C2C7C249
:10002000C6C2C5C2C4C27AC584C592C5A7C5D3C558
:10003000F4C511C657C69BC6A1C6ABC6C5C7FDC78A
:1000400009C829C826C836C85CC974C938CA61CA73
:100050008ECAA8CA64CA6DCA72CAC3CACBCA1027DC
:10006000E80364000A000100640A013031323334CD
:10007000353637383941424344454600005EBCE2DC
:10008000613FDD83C29C7E20A3FD1F419DC3217F74
:10009000FCA2401E5F01E3BD3E6082DC237D9FC168
:1000A000421CFEA0E1BF5D0380DE3C62BEE0025C5C
:1000B000DF81633D7C22C09E1D43A1FF4618FAA448
:1000C00027799BC584DA3866E5BB5907DB85673934
:1000D000BAE406581947A5FB7826C49A653BD98728
:1000E000045AB8E6A7F91B45C6987A24F8A6441A1C
:1000F00099C7257B3A6486D85B05E7B98CD2306E08
:10010000EDB3510F4E10F2AC2F7193CD114FADF3F3
:10011000702ECC92D38D6F31B2EC0E50AFF1134DE7
:10012000CE90722C6D33D18F0C52B0EE326C8ED0DB
:10013000530DEFB1F0AE4C1291CF2D73CA947628C7
:10014000ABF517490856B4EA6937D58B5709EBB5B3
:1001500036688AD495CB2977F4AA4816E9B7550BA7
:1001600088D6346A2B7597C94A14F6A8742AC8969B
:10017000154BA9F7B6E80A54D7896B35556E6B6EE7
:100180006F776E20636F6D6D616E642E20466F72A7
:100190002068656C70202D207072696E7420226852
:1001A000656C70220D0A00436F756C64206E6F746D
:1001B000206368616E67652076616C75652077687D
:1001C000696C6520646576696365207475726E6517
:1001D00064204F4E00496E76616C69642076616CD4
:1001E00075652072616E67652E204D696E2F6D6199
:1001F000783A2000436F6D6D616E6420696E636FA5
:100200006D706C6574652E20466F722068656C7029
:10021000202D207072696E74202268656C70220D2A
:100220000A00537472696E6720746F6F206C61727C
:1002300067650D0A005B54666F6E5D2076616C75B4
:100240006520776173206368616E67656420746FF1
:1002500020005B54666F66665D2076616C75652074
:10026000776173206368616E67656420746F200036
:1002700054656D7065726174757265206879737408
:1002800065726573697320697320002B2B4F4B2BAC
:100290002B0D0A0D0A006F6E006F6666006C6F61B1
:1002A0006400746F66660074666F66660074666FDD
:1002B0006E007365740073617665006C6F61640035
:1002C000726573657400696E666F0068656C7000B6
:1002D00073617665097C09097C205361766520701D
:1002E0006172616D7320746F20454550524F4D0D02
:1002F0000A006C6F6164097C09097C204C6F6164A1
:1003000020706172616D732066726F6D204545507B
:10031000524F4D0D0A007265736574097C09097CA2
:10032000205265736574205445524D414C20505203
:100330004F54454354494F4E206D6F64756C650DA5
:100340000A00097C206C6F6164205B6F6E7C6F66B5
:10035000665D097C204F6E2F6F6666206C6F61644E
:100360000D0A00097C20746F6666205B76616C5D07
:10037000097C20456D657267656E63792053574926
:10038000544348204F46462074656D706572617411
:100390007572650D0A00097C2074666F6666205BC5
:1003A00076616C5D097C2046616E204F4646207464
:1003B000656D70657261747572650D0A00736574A0
:1003C000097C2074666F6E205B76616C5D097C2011
:1003D00046616E204F4E2074656D70657261747554
:1003E00072650D0A0068656C70097C09097C2052F1
:1003F000657475726E20746869732068656C70200E
:100400006465736B0D0A00696E666F097C09097C6F
:1004100020446973706C61792073797374656D2001
:10042000696E666F0D0A002D2D2D2D2D2D2D2D2D74
:100430002D2D2D2D2D2D2D2D2D2D2D2D2D2D2D2DEC
:100440002D2D2D2D2D2D2D2D2D2D2D2D2D2D2D2DDC
:100450002D2D2D2D0D0A00434D44097C2050415275
:10046000414D53097C204465736372697074696FF0
:100470006E0D0A00546F66663A090054666F666630
:100480003A090054666F6E3A0900506172616D73EB
:100490003A0D0A2D2D2D2D2D2D2D0D0A004C6F619D
:1004A000642073746174653A090046616E2073704C
:1004B0006565643A090054532074656D703A09000B
:1004C00054532073657261696C3A09005453207467
:1004D0007970653A090053797374656D3A0D0A2D88
:1004E0002D2D2D2D2D2D0D0A0046573A20312E3061
:1004F000612846656220313020323031392C20307D
:10050000303A32303A3132292C2048573A20312EB5
:10051000300D0A0D0A002863293230313820666C0C
:10052000793872203C666C79387240666C79387222
:100530002E72753E0D0A003E3E3E205445524D41FE
:100540004C2050524F54454354494F4E203C3C3C64
:100550000D0A002F002B002D00756E6B6E6F776EED
:100560000044533138533230004453313842323032
:10057000007C0052504D004F4E004F4646006661D1
:10058000696C6564000D0A003E20002A43001124B6
:100590001FBECFE5D4E0DEBFCDBF23E0A0E6B0E0D4
:1005A00001C01D92A532B207E1F73CDBE8CB28CDB4
:1005B000FC0120E030E04191442331F02F5F3F4FB8
:1005C000243F41E03407B9F7559860916400709179
:1005D0006500559A44EF51E0461B570B2417350729
:1005E00080F5FC01A0916200B09163004191AD568D
:1005F000BF4F4C9340916200509163004F5F5F4F3B
:1006000050936300409362004091620050916300F8
:10061000443F514020F010926300109262005598C0
:1006200040916400509165004F5F5F4F50936500AB
:1006300040936400559AAF01481B590B421753076A
:1006400088F2089520E030E0FC01E20FF31FE4910E
:10065000EE2331F02F5F3F4F243F41E03407A1F7F5
:1006600055986091640070916500559A44EF51E08F
:10067000461B570B24173507A0F540E050E060916A
:10068000620070916300FC01E40FF51FE491DB014F
:10069000AD56BF4FEC9360916200709163006F5F45
:1006A0007F4F70936300609362006091620070916D
:1006B0006300643F714020F010926300109262006A
:1006C000559860916400709165006F5F7F4F7093E3
:1006D000650060936400559A4F5F5F4F4217530760
:1006E00070F208958091640090916500892B31F13A
:1006F000E0916000F0916100ED56FF4F80818CB970
:1007000080916000909161000196909361008093C8
:1007100060008091600090916100843F914020F0E2
:1007200010926100109260008091640090916500C9
:1007300001979093650080936400089555980895FB
:100740008CB18D3029F08F3729F08830D1F402C078
:1007500082E034C090916700992391F18CB9809127
:10076000670081508093670080916600811103C00B
:1007700084E18093660080916600815080936600DA
:100780000895909167009431C0F48CB9E0916600AF
:10079000F0E0E957FD4F8083809166008F5F809382
:1007A000660080916600843111F410926600809199
:1007B00067008F5F80936700089581E080936800F1
:1007C00008951092660010926700089510926C00D0
:1007D000E9E6F0E0118210820895CF93C0916C0099
:1007E000C130C9F018F0C23079F134C0859906C023
:1007F0001092690010926B0081E01EC08091690028
:10080000882341F183E05BD88091690080936A007E
:10081000109269001FC083E0CDD90A97D8F085995E
:100820000EC0C093690080916B0091E0980F909387
:100830006B008C3330F082E080936C0002C0109229
:100840006C0083E0CF91BFC9859B04C0C093690051
:1008500010926C00CF910895EBE9F2E013821282BE
:100860001082118210926D0084E0ADC9CF93DF93A6
:1008700000D000D000D0CDB7DEB7BE016F5F7F4F94
:1008800080919F029091A0022BD9E1EAF2E0DC0175
:100890002D91CD012193B2E0E73AFB07C1F72696EF
:1008A0000FB6F894DEBF0FBECDBFDF91CF91089594
:1008B000CF93C0916D00C130B1F178F0C23009F42E
:1008C00063C0C33009F068C0C09810929B021092B8
:1008D000A00210929F02CADF5DC088E0D3D78823B0
:1008E00011F082E049C080E0F4D78111FACF89E0AD
:1008F000C9D7811140C081E0ECD781113CC0809103
:100900009B02811107C010929E0210929D0284E00A
:10091000CF9159C984E04ED9843F9140E8F184E0F9
:1009200052D981E029C08BB78F7B8BBF20919D026C
:1009300030919E024CE3429FC001439F900D1124D1
:100940009093A00280939F0210929E0210929D02AB
:100950008DDF80919F029091A002892B19F4C093A2
:100960009C0202C010929C028BB780648BBF89E00E
:1009700089D7882321F083E080936D000DC081E04A
:10098000A8D78111F8CF06C0C09A81E080939B025E
:1009900080939C0210926D00CF9108951092710087
:1009A000109270000895CF93C0917100C13029F06A
:1009B00068F1C23009F447C0A0C081E08AD788231B
:1009C00029F0109271009698979897C085E0F2D818
:1009D0008C32914008F491C080917000833020F4F3
:1009E0008F5F8093700002C0C09370008091700090
:1009F000823031F0833039F09698813029F401C08B
:100A0000969A979A0AC0969A979807C080E061D7FD
:100A1000882329F081E08093710085E06CC08BE031
:100A200031D7882309F469C08BE03DD790936F00DC
:100A300080936E0021E0FC01208382E080937100AE
:100A400085E0C1D857C0E0916E00F0916F008381BE
:100A50009481019629F48CE015D7882389F00BC086
:100A600085E0A8D8E0916E00F0916F002381348179
:100A70008217930780F396989798109271003DC063
:100A8000E0916E00F0916F0080818823F9F08281FF
:100A9000813041F028F0823039F4969A979804C05A
:100AA000969801C0969A979AE0916E00F0916F0027
:100AB0008181882311F186E07DD88C329140E8F065
:100AC000E0916E00F0916F00108214C09698979894
:100AD000E0916E00F0916F008181882371F086E0D3
:100AE00069D88C32914048F0E0916E00F0916F002F
:100AF00081E0808386E0CF9166C8CF9108951092FF
:100B000077000895E09177008E2F90E0883091056E
:100B100008F0F2C0FC01ED5EFF4F099487E0B2D609
:100B2000882309F4E9C01092D60281E08093D502AF
:100B300006C09A9907C081E08093D60287E080932F
:100B400077000895A29A82E08093770081E03BC805
:100B500081E030D8892B09F4CFC0A29888EC9A990B
:100B600009C081E030D88EEB92E0909373008093BF
:100B7000720051C0815099F782E0DECF81E01AD82F
:100B8000892B09F4B9C08091D2029FEF980F9093FE
:100B9000D202882391F0E0917200F0917300CF01AE
:100BA0000196909373008093720080818093760009
:100BB00088E08093740084E0C2CF8091D3028823C0
:100BC00009F4BCCF88EC92E090937300809372009C
:100BD0001092750085C0809174009FEF980F9093DC
:100BE00074008823C1F08FB7F89490917600A29A90
:100BF00090FF05C09DE09A95F1F70000A29895ED51
:100C00009A95F1F70000A2988FBF809176008695A3
:100C100080937600089583E092CF8091D3029FEF76
:100C2000980F9093D302882329F088E08093740072
:100C300086E085CF8091D402882309F47FCFE091AC
:100C40007200F0917300908180917500981709F4FB
:100C500075CF83E071CF809174009FEF980F9093D0
:100C60007400882311F19FB7F894E0917200F0911D
:100C70007300808186958083A29A85E08A95F1F73A
:100C80000000A29885E18A95F1F700009A9B07C0C1
:100C9000E0917200F091730080818068808385ED1F
:100CA0008A95F1F700009FBF08958091D3028823B1
:100CB000B9F08091D402882351F0E0917200F09154
:100CC0007300608180917500ACD68093750080912F
:100CD000720090917300019690937300809372005C
:100CE00085E02DCF1092D2021092D3021092D5023D
:100CF00082E0E5D510927700089510927E0080E0A2
:100D000062D7E7EBF2E013821092780081E08283F1
:100D10000895E199FECF43E050E060E070E08BEB96
:100D200092E007D88091BB0281508E3F18F088E294
:100D30008093BB028091BC0281508E3F18F083E209
:100D40008093BC028091BD0281508E3F18F086E4F2
:100D50008093BD020895E0917E008E2F90E089304F
:100D6000910508F0B8C1FC01E55EFF4F099480E0F1
:100D7000A6D581E080937E0080E025C780E01AD769
:100D80008838934108F4A7C181E099D583E06BD5F9
:100D900022C19091B7028091B902992311F082602B
:100DA00001C08D7F8093B9029091A7028091B90212
:100DB000911106C02091B1029091BD02291728F02F
:100DC00091E09093B802806803C01092B8028F77C8
:100DD0008093B9028091B80281116AC08091B902F2
:100DE00081FF5AC090919C029923A9F080917800CC
:100DF000833038F488E037D5809178008F5F809316
:100E0000780080917800833059F48091B902806233
:100E10008093B90205C08F7D8093B902109278004B
:100E20002091B1029091BC028091B902921760F0BA
:100E300085FD06C080919B02882311F089E013D5BF
:100E40008091B902806101C08F7E8093B902909138
:100E5000B1023091BC028091B9022091BB023917D6
:100E600020F4921710F4886001C0877F8093B90244
:100E70008091B902921760F085FD06C080919B02B7
:100E8000811102C088E0EFD48091B902846001C072
:100E90008B7F8093B9020CC080919B02882341F024
:100EA0009091B1028091BC02891710F089E0DBD4E7
:100EB0008091B9029091BA02891709F47AC080939F
:100EC000BA0281FF51C02091B1029091BD02291751
:100ED00030F081E08093790010927A0009C09091FF
:100EE000A702992391F081E08093790080937A00A2
:100EF00010927B0080E197E290937D0080937C00CC
:100F000069E770E08BE09ED454C084FD08C0982F40
:100F1000987083FF11C020919B0221110DC085FFA5
:100F200004C081E080937A0002C010927A0081E0D0
:100F30008093790082E013C082FD06C09923C9F135
:100F400090919B029923A9F185FF04C081E08093D1
:100F50007A0002C010927A0081E080937900809339
:100F60007B008FEF9FEFC8CF80FF23C08091A70247
:100F7000882331F081E080937A0010927B0009C0D1
:100F800080919C02882379F081E080937A0080939D
:100F90007B0080E197E290937D0080937C0069E77D
:100FA00070E08BE04FD48091B9028E7F8093B902BC
:100FB000B0DE8091B802882309F478C08091B7022E
:100FC000882309F473C024C080E0F4D5883E9340A0
:100FD00020F080E0F8D582E06AC083E07AD48823EC
:100FE00029F08091B702882349F012C081E04AD4E9
:100FF000882331F08091B702811102C084E057C08C
:1010000082E040D4882331F08091B702813011F41E
:1010100085E04DC08EE036D4882311F087E047C0CC
:101020008DE030D4882311F086E041C08FE02AD4CF
:10103000882309F450C088E03AC08091B802811139
:1010400035C081E08093B70288E00DD4109278001B
:10105000AD9A2CC01092B70280919C02811106C0FB
:101060009091B1028091BC02891710F089E0FBD306
:101070008091B802811105C010927D0010927C0011
:1010800006C080E197E290937D0080937C00AD984C
:101090000DC03FDE09C0E199FECF43E050E060E0C3
:1010A00070E08BEB92E055D685E0DDD383E0809352
:1010B0007E0008950FB6F894A89581B5886181BD2A
:1010C00011BC0FBE98E088E10FB6F894A89581BDD9
:1010D0000FBE91BDFFCF08951092800081E08093F4
:1010E0007F000895CF93DF9300D000D0CDB7DEB757
:1010F000809180008230E1F128F4882361F0813012
:1011000019F1E1C0843009F473C008F458C0853087
:1011100009F48FC0D8C086E0B5D3882311F081E0F0
:1011200010C080E0D6D38111FACF80917F00882350
:1011300009F4C9C082E03ED5893B9B4008F4C3C096
:1011400083E080938000BFC09091D5029111BBC015
:1011500093E39093BE028093D20298E09093D302DF
:101160008093D4021092A70287E07DD382E0E9CF7A
:1011700082E0AFD3882309F4A6C08091D602811102
:1011800018C0A8ECB2E0E8EAF2E080EB92E02D9122
:1011900021938E179F07D9F78091A802883221F4F6
:1011A00082E080937F0008C0803131F010927F0090
:1011B00003C081E08093A7021092800016C0809146
:1011C000D502811180C08CEC8093BE0284E48093B0
:1011D000BF0282E08093D2021092D3021092A70243
:1011E00087E041D384E08093800082E0ECD46BC040
:1011F00082E0E0D48132934008F465C08091D60249
:1012000081115CC08091D50281115DC08CEC80930E
:10121000BE028EEB8093BF0282E08093D20289E00F
:101220008093D30281E08093D40287E01CD385E0D1
:1012300088CF82E04ED3882309F445C08091D6023E
:1012400081113CC080917F00823069F48091C80296
:101250009091C90233E0959587953A95E1F790937F
:10126000C9028093C8028091C8029091C9029595E5
:1012700087959093C9028093C8028093B00287FF3C
:1012800005C091E09093B202819502C01092B20223
:101290008093B102BE016F5F7F4F8091B102DED3B8
:1012A000FC0180818093B30281818093B4028281AA
:1012B0008093B50283818093B60203C081E080935E
:1012C000A702109280000F900F900F900F90DF9167
:1012D000CF9108951092830008950F931F93CF9399
:1012E000DF9300D000D0CDB7DEB7E09183008E2F22
:1012F00090E08B30910508F085C2FC01EC5DFF4F5A
:10130000099483E0BFD2882311F081E06CC285E0AC
:10131000B9D2811165C280916800813029F0823094
:1013200009F070C28AE001C087E0809383001092C8
:10133000680068C2579885E895E084D987E395E00E
:1013400081D986E195E07ED989EE94E07BD986ED5E
:1013500094E078D98CEC94E075D98091A802882328
:1013600009F446C0823019F489E695E002C081E6AE
:1013700095E068D985E895E065D980EC94E062D97C
:10138000BE016F5F7F4F8091A80252D311D981E7D0
:1013900095E058D90FEA12E0BE016F5F7F4FF80168
:1013A00082918F0145D304D9F2E0093A1F07A1F7D2
:1013B00081E795E047D9BE016F5F7F4F8091AF0213
:1013C00037D3F6D885E895E03DD986EB94E03AD955
:1013D0008091B202882319F087E595E002C085E587
:1013E00095E030D983EB92E0E3D88BE895E002C03A
:1013F00089E595E027D985E895E024D98AEA94E043
:1014000021D980919C02882319F08EE795E005C0D0
:1014100081EA92E0CDD883E795E014D985E895E09C
:1014200011D98DE994E00ED98091B702882319F083
:1014300087E795E002C08AE795E004D985E895E062
:1014400001D985E895E0FED88AE894E0FBD883E8E6
:1014500094E0F8D8BE016F5F7F4F8091BB02FED24F
:10146000A7D88BE895E0EED885E895E0EBD88BE738
:1014700094E0E8D8BE016F5F7F4F8091BC02EED24E
:1014800097D88BE895E0DED885E895E0DBD884E74F
:1014900094E0D8D8BE016F5F7F4F8091BD02DED24D
:1014A00087D88BE895E0CED885E895E0CBD885E85D
:1014B00095E0C8D888E895E0C5D8579AA1C185E8D5
:1014C00095E0C0D887E294E0BDD887E594E0BAD82B
:1014D00087E294E0B7D887E094E0B4D885EE93E053
:1014E000B1D88DEB93E0AED886E993E0ABD883E634
:1014F00093E0A8D882E493E0A5D886E193E0A2D84F
:1015000082EF92E09FD880ED92E09CD885E895E04C
:101510000BC085E895E096D88BE892E06CC185E831
:1015200095E090D884EF91E08DD888E895E08AD84E
:1015300067C185E895E086D882E292E05CC185E8E3
:1015400095E080D885ED91E07DD8BE016F5F7F4F3B
:101550008091820083D22CD883E595E073D8BE01B8
:101560006F5F7F4F8091810079D222D840C085E89B
:1015700095E068D880E792E065D8BE016F5F7F4F45
:1015800085E06CD215D88BE895E05CD885E895E0CD
:1015900059D882E592E056D8BE016F5F7F4F8091A7
:1015A000BC021AC085E895E04DD880E792E04AD8A1
:1015B000BE016F5F7F4F85E051D2FAD78BE895E08F
:1015C00041D885E895E03ED885E392E03BD8BE015E
:1015D0006F5F7F4F8091BB0241D2EAD78BE895E0E5
:1015E00005C085E895E02ED887EA91E02BD885E8FC
:1015F00095E001C16091670087E892E0A5D1182FBE
:10160000882309F4F3C066EC72E080911F03909187
:101610002003D6D1882311F081E00AC06BEC72E080
:1016200080911F0390912003CBD1882329F082E081
:1016300080938300C6D8E6C060EC72E080911F03FF
:1016400090912003BDD1882319F08FE00CD1DAC02E
:101650006BEB72E080911F0390912003B1D188233E
:1016600011F08EE00AC066EB72E080911F0390914A
:101670002003A6D1882319F08DE0F5D0C1C062EB1C
:1016800072E080911F03909120039AD1882309F47E
:10169000ADC0133008F4A6C06DE972E0809121035B
:1016A000909122038DD18823C1F066E972E0809188
:1016B00023039091240384D1882311F081E00BC08F
:1016C00069E972E0809123039091240379D1882302
:1016D00009F488C082E0C7D083C06DEA72E08091CF
:1016E0002103909122036CD1882339F18091B702B4
:1016F00081115FC08091230390912403009709F426
:1017000071C07BD192EE980F9E3228F08EE18093CB
:1017100082008BE45FC08093BB02482F50E0209191
:10172000BC0230E02B5F3F4F241735070CF458C044
:1017300085508093BC0284E056C067EA72E08091D5
:101740002103909122033CD1882331F18091B7028B
:1017500081112FC08091230390912403009709F4F5
:1017600041C04BD197EE980F9E3228F089E18093CB
:10177000820086E42FC08093BC02482F50E0209165
:10178000BB0230E025503109421753074CF18B5F03
:101790008093BB0285E027C062EA72E0809121035A
:1017A000909122030DD1882359F18091B7028823AB
:1017B00011F089E018C080912303909124030097D1
:1017C00089F01BD192EE980F933340F08EE1809315
:1017D000820080E58093810088E005C08093BD028F
:1017E00083E001C086E0809383000CC085E895E02B
:1017F00029D78CE791E026D788E895E023D7E1D771
:10180000109283000F900F900F900F90DF91CF9167
:101810001F910F91089580E090E0FC01EE0FFF1FF3
:10182000E80FF91FE552FD4F1082019680319105B6
:10183000A1F71092D7021092D8021092D9021092FA
:10184000DA02089590E0FC01EE0FFF1F8E0F9F1F3C
:10185000FC01E552FD4F8081811104C081E080834D
:1018600072836183089590E0FC01EE0FFF1F8E0FDD
:101870009F1FFC01E552FD4F8081811102C081E074
:101880008083089590E0FC01EE0FFF1F8E0F9F1FD5
:10189000FC01E552FD4F8081823019F4108281E015
:1018A000089580E0089590E0FC01EE0FFF1F8E0F79
:1018B0009F1FFC01E552FD4F818192810895E82F21
:1018C000F0E0E952FD4F8081811102C081E0808308
:1018D0000895E82FF0E0E952FD4F908181E09230C9
:1018E00009F080E008952FB7F89480E090E032E0AE
:1018F000FC01EE0FFF1FDF01A80FB91FA552BD4F5E
:101900004C91423009F41C92E80FF91FE552FD4F4B
:101910004081413009F4308301968031910541F7CF
:1019200080E090E032E0FC01E952FD4F408142301E
:1019300009F410824081413009F4308301968430EB
:10194000910589F72FBF0895CF93DF93662391F117
:10195000ABE0B3E0FD01119223E0EF31F207D9F7DC
:10196000482FFC0180E090E020E03E2F341B36172A
:1019700020F53081303211F03D3341F4911113C024
:101980008330D1F01C9291E020E011C03C932111F2
:101990000CC0C82FD0E0CC0FDD1FC15EDC4FB98377
:1019A000A8838F5F02C091E002C090E021E0119611
:1019B0003196DBCF80E001C083E0DF91CF910895C5
:1019C000AC0120E0E22FF0E0DA01AE0FBF1F9C91E6
:1019D000E60FF71F849198130CC0911105C0E49194
:1019E00081E0EE2349F007C0E491EE2321F02F5F60
:1019F000E9CF9923A1F380E00895FC0180E03191C3
:101A0000332371F096ED930F9631C8F7982F990F05
:101A1000292F220F220F920F9053892F830FEFCF80
:101A200008958627E82FF0E0E458FF4F8491089549
:101A3000DB01E82FE295EF70F0E0E559FF4FE4910C
:101A4000EC93E82FEF70F0E0E559FF4FE491119629
:101A5000EC93119712961C92CB010895EF92FF928E
:101A60000F931F93CF93DF93DB01811106C080E3B7
:101A70008C9311961C9211972BC091E08A3008F03C
:101A800090E008E610E0ED017D0123E0E20EF11C9C
:101A9000F801459155916591749120E0841718F0F3
:101AA0002F5F841BFBCF205D29930F5F1F4FCE1547
:101AB000DF0571F713961C921397892F90E0FD01B3
:101AC000E80FF91FDF01A81BB90B21912033D1F3D7
:101AD000CD01DF91CF911F910F91FF90EF9008956D
:101AE000CF92DF92EF92FF920F931F93CF93DF93EA
:101AF0009C01DB01892B31F480E38C9311961C92BD
:101B0000119723C06EE570E0AD018D010B5F1F4F93
:101B1000ED01FB01C590D590E590F49090E02C1577
:101B20003D0520F09F5F2C193D09F9CF905D9993F9
:101B30006E5F7F4FC017D10761F715961C92DA01CF
:101B40004F5F5F4F8C918033D1F3CD01DF91CF9107
:101B50001F910F91FF90EF90DF90CF90089580E05C
:101B600090E0FC01EE0FFF1FEC57FF4F1182108237
:101B7000019687309105A9F70895FC014081AFB720
:101B8000F8944423A9F020E030E050E0F901EE0F92
:101B9000FF1FEC57FF4F60817181640F751F7183C8
:101BA00060832F5F3F4F2730310581F7FC011082A2
:101BB000AFBF0895E82FF0E0EE0FFF1FEC57FF4F87
:101BC000808191810895E82FF0E0EE0FFF1FEC5720
:101BD000FF4F1182108208958CE085BD12BC8DE705
:101BE00083BD14BC89B7806889BFA298959A8D98E7
:101BF000A59AAD98B89AC098929A8A9885B782604B
:101C000085BF8BB780648BBF8E9A96988F9A83E33B
:101C100089B910BC1BB888E18AB986E880BD559A9D
:101C2000A2980895D9DFF7DD9ADF67D853DB67D72D
:101C300053DA12D6CBD5B2D6789482E990E09DDF04
:101C40008AD84BDB5FD74EDA33D6C7D5ACD64BDE5E
:101C5000F4CF1F920F920FB60F9211248F938091A1
:101C600092008F5F809392008F910F900FBE0F9024
:101C70001F9018951F920F920FB60F9211248F93F9
:101C80009F93EF93FF93EBE9F2E0828193810196BA
:101C900093838283FF91EF919F918F910F900FBE5D
:101CA0000F901F9018951F920F920FB60F9211244C
:101CB0002F933F934F935F936F937F938F939F9354
:101CC000AF93BF93EF93FF933BD5FF91EF91BF91FC
:101CD000AF919F918F917F916F915F914F913F91C4
:101CE0002F910F900FBE0F901F9018951F920F927B
:101CF0000FB60F9211242F933F934F935F936F93DF
:101D00007F938F939F93AF93BF93EF93FF93EAD407
:101D1000FF91EF91BF91AF919F918F917F916F91C3
:101D20005F914F913F912F910F900FBE0F901F9099
:101D30001895DC01CB01FC01E199FECF06C0FFBB89
:101D4000EEBBE09A31960DB20D9241505040B8F77B
:101D50000895DC01CB0102C02D9105D041505040C7
:101D6000D8F70895262FE199FECF9FBB8EBB2DBBE0
:101D70000FB6F894E29AE19A0FBE01960895F8948E
:021D8000FFCF93
:00000001FF
